S01200006172647541726D5F6D632E7372656317
S11300000C9434000C9446000C9446000C94460066
S11300100C9446000C9446000C9446000C94460044
S11300200C9446000C9446000C9446000C94460034
S11300300C9446000C9446000C9446000C94460024
S11300400C9446000C9446000C9494000C94BF004D
S11300500C9446000C9446000C9446000C94460004
S11300600C9446000C94460011241FBECFEFD8E038
S1130070DEBFCDBF21E0A0E0B1E001C01D92A93AEE
S1130080B207E1F70E9417010C9485010C9400005B
S1130090EF92FF920F931F93CF93DF93815004E667
S11300A0809F002D1124C6E4D1E00F2EFAEAEF2E32
S11300B0F1E0FF2EF02D10E005541140C8018C0F23
S11300C09D1F0E946F018993CE15DF05B9F7DF915B
S11300D0CF911F910F91FF90EF900895EF92FF92AF
S11300E00F931F93CF93DF9361508C010F5F1F4FCA
S11300F084E6689FE02C1124F12CE701219685E623
S1130100E80EF11CF80161918F0170E0CE010E94AC
S113011077012196CE15DF05A9F7DF91CF911F91C5
S11301200F91FF90EF9008951F920F920FB60F92C8
S113013011242F938F939F93EF93FF938091C0008B
S11301402091C6008871E0910201EF5FEF719091F8
S11301500101E91739F0E0930201F0E0EB5FFE4F93
S1130160208301C082E080930001FF91EF919F9171
S11301708F912F910F900FBE0F901F9018951F9283
S11301800F920FB60F9211248F939F93EF93FF93C7
S11301909091040180910301981769F0E0910301A3
S11301A0EF5FEF71E0930301F0E0EB5DFE4F8081C0
S11301B08093C60005C0E1ECF0E080818F7D8083F0
S11301C0FF91EF919F918F910F900FBE0F901F9011
S11301D018951092040110920301109202011092DA
S11301E00101992324F422E02093C0009F77909387
S11301F0C5008093C40088E98093C10086E08093A1
S1130200C2000895209104012F5F2F719091030182
S11302102917E1F3E22FF0E0EB5DFE4F808320939A
S11302200401E1ECF0E08081806280830895CF9343
S1130230DF93CDB7DEB7C456D1090FB6F894DEBF4D
S11302400FBECDBF87E690E00E94E90078948A81D2
S11302508295880F880F807C8A698A8388E78B83DC
S11302608AE28C8361E0CE0101960E946E0081E0F7
S11302700E94480080914601982F9770E92E182F0C
S1130280187316951695169582958695869583709E
S1130290823029F4E5E4F1E00281F38004C0813086
S11302A011F4009147010E9402018E2D0E94020167
S11302B0812F0E940201802F0E9402018F2D0E9433
S11302C0020100E010E0C8010E946F010E940201D7
S11302D00F5F1F4F011584E01807A9F7FFCFF999A5
S11302E0FECF92BD81BDF89A992780B50895262F37
S11302F0F999FECF1FBA92BD81BD20BD0FB6F89407
S1110300FA9AF99A0FBE01960895F894FFCF69
S9030000FC
