S01200006172647541726D5F6D632E7372656317
S11300000C9434000C9446000C9446000C94460066
S11300100C9446000C9446000C9446000C94460044
S11300200C9446000C9446000C9446000C94460034
S11300300C9446000C9446000C9446000C94460024
S11300400C9446000C9446000C948A000C94B50061
S11300500C9446000C9446000C9446000C94460004
S11300600C9446000C94460011241FBECFEFD8E038
S1130070DEBFCDBF21E0A0E0B1E001C01D92A534F8
S1130080B207E1F70E9414010C9440010C940000A3
S113009087E690E00E94DF00789480E090E0F99990
S11300A0FECF92BD81BDFC9AFA9AF99A0196811508
S11300B024E09207A1F780E284B915B885B985E5F3
S11300C00E94F80089EF90E00197F1F700C000006A
S11300D080E18093C10020E030E0E0ECF0E0A6ECA9
S11300E0B0E080818823ECF7F999FECF32BD21BDC1
S11300F08C9180BD8FB31FBAFD9AFA9AF99A2F5F3B
S11301003F4F211594E0390761F78AEA0E94F8000D
S113011015B808951F920F920FB60F9211242F93C2
S11301208F939F93EF93FF938091C0002091C6001B
S11301308871E0910201EF5FEF7190910101E9177D
S113014039F0E0930201F0E0EB5FFE4F208301C041
S113015082E080930001FF91EF919F918F912F9105
S11301600F900FBE0F901F9018951F920F920FB60D
S11301700F9211248F939F93EF93FF939091040117
S113018080910301981769F0E0910301EF5FEF712B
S1130190E0930301F0E0EB5DFE4F80818093C600A5
S11301A005C0E1ECF0E080818F7D8083FF91EF91C9
S11301B09F918F910F900FBE0F901F9018951092E2
S11301C0040110920301109202011092010199237B
S11301D024F422E02093C0009F779093C50080937D
S11301E0C40088E98093C10086E08093C20008952A
S11301F0209104012F5F2F71909103012917E1F3DE
S1130200E22FF0E0EB5DFE4F808320930401E1ECEC
S1130210F0E08081806280830895F999FECF92BDD9
S113022081BDF89A80B50895CF93DF9387E690E077
S11302300E94DF00789414B88FEF85B983B12FEF53
S113024033ED90E3215030409040E1F700C00000CE
S113025081110EC00E9448000BC0CE010E940D0106
S11302600E94F8002196C11524E0D207B1F703C01B
S1130270C0E0D0E0F2CF80E090E0DF91CF9108952C
S1070280F894FFCF1C
S9030000FC
