:100000000C9434000C9446000C9446000C9446006A
:100010000C9446000C9446000C9446000C94460048
:100020000C9446000C9446000C9446000C94460038
:100030000C9446000C9446000C9446000C94460028
:100040000C9446000C9446000C9464000C948F00B1
:100050000C9446000C9446000C9446000C94460008
:100060000C9446000C94460011241FBECFEFD8E03C
:10007000DEBFCDBF21E0A0E0B1E001C01D92A534FC
:10008000B207E1F70E9402010C9441010C940000B8
:10009000CF93DF93789480E284B915B885B9C0E036
:1000A000D0E00E94D200BC017727CE010E9433012C
:1000B0002196C11584E0D807A1F784E50E94ED00E0
:1000C00015B8DF91CF9108951F920F920FB60F923E
:1000D00011242F938F939F93EF93FF938091C000F0
:1000E0002091C6008871E0910201EF5FEF7190915D
:1000F0000101E91739F0E0930201F0E0EB5FFE4FF8
:10010000208301C082E080930001FF91EF919F91D5
:100110008F912F910F900FBE0F901F9018951F92E7
:100120000F920FB60F9211248F939F93EF93FF932B
:100130009091040180910301981769F0E091030107
:10014000EF5FEF71E0930301F0E0EB5DFE4F808124
:100150008093C60005C0E1ECF0E080818F7D808354
:10016000FF91EF919F918F910F900FBE0F901F9075
:10017000189510920401109203011092020110923E
:100180000101992324F422E02093C0009F779093EB
:10019000C5008093C40088E98093C10086E0809305
:1001A000C20008959091020180910101981791F089
:1001B000E0910101EF5FEF71E0930101F0E0EB5F8F
:1001C000FE4F20818091000190E0982F8827820FB8
:1001D000911D089580E091E00895209104012F5F22
:1001E0002F71909103012917E1F3E22FF0E0EB5D0D
:1001F000FE4F808320930401E1ECF0E08081806277
:1002000080830895CF93DF9387E690E00E94B90042
:1002100078948FEF0E94ED0014B88FEF85B9C3B1C9
:100220008C2F0E94ED00C1110EC00E9448000BC02F
:10023000CE010E942B010E94ED002196C11584E0A1
:10024000D807B1F703C0C0E0D0E0F2CF80E090E083
:10025000DF91CF910895F999FECF92BD81BDF89AB3
:10026000992780B50895262FF999FECF1FBA92BD20
:1002700081BD20BD0FB6F894FA9AF99A0FBE019687
:060280000895F894FFCF81
:00000001FF
