S01200006172647541726D5F6D632E7372656317
S11300000C9434000C9446000C9446000C94460066
S11300100C9446000C9446000C9446000C94460044
S11300200C9446000C9446000C9446000C94460034
S11300300C9446000C9446000C9446000C94460024
S11300400C9446000C9446000C9482000C94AD0071
S11300500C9446000C9446000C9446000C94460004
S11300600C9446000C94460011241FBECFEFD8E038
S1130070DEBFCDBF21E0A0E0B1E001C01D92A534F8
S1130080B207E1F70E9405010C9447010C940000AB
S1130090EF92FF920F931F93CF93DF93789480E2B4
S11300A084B915B885B985E50E94F00089EF90E020
S11300B00197F1F700C0000080E18093C10000E0E7
S11300C010E0C0ECD0E00F2EF6ECEF2EF12CF02D6A
S11300D088818823ECF7F701608170E0C8010E94F1
S11300E039010F5F1F4F0115F4E01F0789F78AEAF2
S11300F00E94F00015B8DF91CF911F910F91FF90EE
S1130100EF9008951F920F920FB60F9211242F9320
S11301108F939F93EF93FF938091C0002091C6002B
S11301208871E0910201EF5FEF7190910101E9178D
S113013039F0E0930201F0E0EB5FFE4F208301C051
S113014082E080930001FF91EF919F918F912F9115
S11301500F900FBE0F901F9018951F920F920FB61D
S11301600F9211248F939F93EF93FF939091040127
S113017080910301981769F0E0910301EF5FEF713B
S1130180E0930301F0E0EB5DFE4F80818093C600B5
S113019005C0E1ECF0E080818F7D8083FF91EF91D9
S11301A09F918F910F900FBE0F901F9018951092F2
S11301B0040110920301109202011092010199238B
S11301C024F422E02093C0009F779093C50080938D
S11301D0C40088E98093C10086E08093C20008953A
S11301E0209104012F5F2F71909103012917E1F3EE
S11301F0E22FF0E0EB5DFE4F808320930401E1ECFD
S1130200F0E08081806280830895CF93DF9387E656
S113021090E00E94D700789414B88FEF85B983B129
S11302202FEF33ED90E3215030409040E1F700C0D0
S1130230000081110EC00E9448000BC0CE010E9434
S113024031010E94F0002196C11524E0D207B1F7D4
S113025003C0C0E0D0E0F2CF80E090E0DF91CF9126
S11302600895F999FECF92BD81BDF89A992780B57A
S11302700895262FF999FECF1FBA92BD81BD20BDE6
S11302800FB6F894FA9AF99A0FBE01960895F89465
S1050290FFCF9A
S9030000FC
