S01200006172647541726D5F6D632E7372656317
S11300000C9434000C9446000C9446000C94460066
S11300100C9446000C9446000C9446000C94460044
S11300200C9446000C9446000C9446000C94460034
S11300300C9446000C9446000C9446000C94460024
S11300400C9446000C9446000C94A0000C94CB0035
S11300500C9446000C9446000C9446000C94460004
S11300600C9446000C94460011241FBECFEFD8E038
S1130070DEBFCDBF21E0A0E0B1E001C01D92A534F8
S1130080B207E1F70E942A010C9454010C94000079
S113009087E690E00E94F500789485E50E940E01C1
S11300A080E18093C100E0ECF0E080818823ECF7EC
S11300B04091C600E0ECF0E080818823ECF7809169
S11300C0C60050E0582B4115510531F180E090E015
S11300D0F999FECF92BD81BDFC9AFA9AF99A0196DC
S11300E048175907A9F71FC080818823ECF7F999AD
S11300F0FECF32BD21BD8C9180BD8FB31FBAFD9A56
S1130100FA9AF99A2F5F3F4F4217530769F78AEA21
S11301100E940E0115B8089588E384B985B980E179
S11301208093C100F4CF88E384B985B980E18093DA
S1130130C10020E030E0E0ECF0E0A6ECB0E0D4CF89
S11301401F920F920FB60F9211242F938F939F93A8
S1130150EF93FF938091C0002091C6008871E091D5
S11301600201EF5FEF7190910101E91739F0E0931B
S11301700201F0E0EB5FFE4F208301C082E0809338
S11301800001FF91EF919F918F912F910F900FBEDE
S11301900F901F9018951F920F920FB60F92112473
S11301A08F939F93EF93FF939091040180910301A8
S11301B0981769F0E0910301EF5FEF71E093030199
S11301C0F0E0EB5DFE4F80818093C60005C0E1EC5A
S11301D0F0E080818F7D8083FF91EF919F918F91DB
S11301E00F900FBE0F901F9018951092040110925B
S11301F003011092020110920101992324F422E0D8
S11302002093C0009F779093C5008093C40088E931
S11302108093C10086E08093C20008952091040178
S11302202F5F2F71909103012917E1F3E22FF0E082
S1130230EB5DFE4F808320930401E1ECF0E08081CC
S1130240806280830895F999FECF92BD81BDF89AAA
S113025080B50895CF93DF9387E690E00E94F50080
S1130260789414B815B82FEF89E698E121508040AE
S11302709040E1F700C00000189B0EC00E944800A7
S11302800BC0CE010E9423010E940E012196C115CC
S113029024E0D207B1F703C0C0E0D0E0F2CF80E0A1
S10F02A090E0DF91CF910895F894FFCF17
S9030000FC
