S01200006172647541726D5F6D632E7372656317
S11300000C9434000C9446000C9446000C94460066
S11300100C9446000C9446000C9446000C94460044
S11300200C9446000C9446000C9446000C94460034
S11300300C9446000C9446000C9446000C94460024
S11300400C9446000C9446000C9448000C947300E5
S11300500C9446000C9446000C9446000C94460004
S11300600C9446000C94460011241FBECFEFD8E038
S1130070DEBFCDBF21E0A0E0B1E001C01D92A534F8
S1130080B207E1F70E94CB000C94DD000C94000051
S11300901F920F920FB60F9211242F938F939F9359
S11300A0EF93FF938091C0009091C6008871E09116
S11300B00201EF5FEF7120910101E21739F0E09343
S11300C00201F0E0EB5FFE4F908301C082E0809379
S11300D00001FF91EF919F918F912F910F900FBE8F
S11300E00F901F9018951F920F920FB60F92112424
S11300F08F939F93EF93FF93909104018091030159
S1130100981769F0E0910301EF5FEF71E093030149
S1130110F0E0EB5DFE4F80818093C60005C08091C6
S1130120C1008F7D8093C100FF91EF919F918F91CA
S11301300F900FBE0F901F9018951092040110920B
S11301400301109202011092010197FF04C022E002
S11301502093C0009F779093C5008093C40088E9E2
S11301608093C10086E08093C200089590910401B9
S11301709F5F9F71209103019217E1F3E92FF0E053
S1130180EB5DFE4F8083909304018091C1008062F7
S11301908093C100089587E690E00E949D007894C2
S11301A0CFEF8FE19EE40197F1F700C0000014B88F
S11101B0C5B983B10E94B600F4CFF894FFCF16
S9030000FC
